:020000040800F2
:100000000000022085CA0308252F00082D2F0008B4
:10001000312F0008352F0008392F0008000000009C
:10002000000000000000000000000000819E0308A6
:100030003D2F000800000000119F0308759F030872
:10004000D5CA0308D5CA0308D5CA0308D5CA030808
:10005000D5CA0308D5CA0308D5CA0308D5CA0308F8
:10006000D5CA0308D5CA0308D5CA0308412F00081A
:10007000D5CA0308D5CA0308D5CA0308D5CA0308D8
:10008000D5CA0308D5CA0308D5CA0308D5CA0308C8
:10009000D5CA0308D5CA0308D5CA0308D5CA0308B8
:1000A000D5CA03084D2F0008D5CA0308D5CA0308CE
:1000B000592F0008D5CA0308D5CA0308D5CA0308B2
:1000C000D5CA0308D5CA0308D5CA0308D5CA030888
:1000D000D5CA0308D5CA0308D5CA0308D5CA030878
:1000E000D5CA0308652F0008D5CA0308D5CA030876
:1000F000D5CA0308D5CA0308D5CA0308D5CA030858
:10010000D5CA0308D5CA0308D5CA0308D5CA030847
:10011000D5CA0308D5CA0308D5CA0308D5CA030837
:10012000D5CA0308D5CA0308D5CA0308712F000829
:10013000D5CA03080000000000000000D5CA03086B
:10014000D5CA0308D5CA0308D5CA0308D5CA030807
:10015000D5CA0308D5CA0308D5CA0308D5CA0308F7
:10016000D5CA0308D5CA0308D5CA0308D5CA0308E7
:10017000D5CA0308D5CA030800000000000000002B
:08018000D5CA0308D5CA030823
:1001C00010B5054C237833B9044B13B10448AFF391
:1001D00000800123237010BD900A00200000000061
:1001E000E86C040808B5034B1BB103490348AFF39F
:1001F000008008BD00000000940A0020E86C04089C
:1002000081F0004102E000BF83F0004330B54FEAC7
:1002100041044FEA430594EA050F08BF90EA020F34
:100220001FBF54EA000C55EA020C7FEA645C7FEAC7
:10023000655C00F0E2804FEA5454D4EB5555B8BFEA
:100240006D420CDD2C4480EA020281EA030382EA5B
:10025000000083EA010180EA020281EA0303362DED
:1002600088BF30BD11F0004F4FEA01314FF4801CC0
:100270004CEA113102D0404261EB410113F0004FD2
:100280004FEA03334CEA133302D0524263EB430389
:1002900094EA050F00F0A780A4F10104D5F1200E27
:1002A0000DDB02FA0EFC22FA05F2801841F1000182
:1002B00003FA0EF2801843FA05F359410EE0A5F156
:1002C00020050EF1200E012A03FA0EFC28BF4CF087
:1002D000020C43FA05F3C01851EBE37101F000453D
:1002E00007D54FF0000EDCF1000C7EEB00006EEB4A
:1002F0000101B1F5801F1BD3B1F5001F0CD34908D4
:100300005FEA30004FEA3C0C04F101044FEA44522A
:1003100012F5800F80F09A80BCF1004F08BF5FEAB1
:10032000500C50F1000041EB045141EA050130BD91
:100330005FEA4C0C404141EB0101013C28BFB1F5A3
:10034000801FE9D291F0000F04BF01460020B1FAEE
:1003500081F308BF2033A3F10B03B3F120020CDAC1
:100360000C3208DD02F1140CC2F10C0201FA0CF09F
:1003700021FA02F10CE002F11402D8BFC2F1200C04
:1003800001FA02F120FA0CFCDCBF41EA0C019040BA
:10039000E41AA2BF01EB0451294330BD6FEA040403
:1003A0001F3C1CDA0C340EDC04F11404C4F12002EE
:1003B00020FA04F001FA02F340EA030021FA04F300
:1003C00045EA030130BDC4F10C04C4F1200220FA57
:1003D00002F001FA04F340EA0300294630BD21FA95
:1003E00004F0294630BD94F0000F83F4801306BF5B
:1003F00081F480110134013D4EE77FEA645C18BF4F
:100400007FEA655C29D094EA050F08BF90EA020FE5
:1004100005D054EA000C04BF1946104630BD91EADD
:10042000030F1EBF0021002030BD5FEA545C05D1E0
:100430004000494128BF41F0004130BD14F580041F
:100440003CBF01F5801130BD01F0004545F0FE4193
:1004500041F470014FF0000030BD7FEA645C1ABFC8
:10046000194610467FEA655C1CBF0B46024650EAFF
:10047000013406BF52EA033591EA030F41F400212B
:1004800030BD00BF90F0000F04BF0021704730B5B1
:100490004FF4806404F132044FF000054FF0000186
:1004A00050E700BF90F0000F04BF0021704730B547
:1004B0004FF4806404F1320410F0004548BF40421C
:1004C0004FF000013EE700BF42004FEAE2014FEA71
:1004D00031014FEA02701FBF12F07F4393F07F4F4C
:1004E00081F06051704732F07F4208BF704793F04F
:1004F0007F4F04BF41F40021704730B54FF4607462
:1005000001F0004521F000411CE700BF50EA010264
:1005100008BF704730B54FF000050AE050EA01020D
:1005200008BF704730B511F0004502D5404261EB7D
:1005300041014FF4806404F132045FEA915C3FF4BE
:10054000D8AE4FF003025FEADC0C18BF03325FEA5B
:10055000DC0C18BF033202EBDC02C2F1200300FA0C
:1005600003FC20FA02F001FA03FE40EA0E0021FA31
:1005700002F11444BDE600BF70B54FF0FF0C4CF41F
:10058000E06C1CEA11541DBF1CEA135594EA0C0FD1
:1005900095EA0C0F00F0DEF82C4481EA030621EA0C
:1005A0004C5123EA4C5350EA013518BF52EA033547
:1005B00041F4801143F4801338D0A0FB02CE4FF0F9
:1005C0000005E1FB02E506F00042E0FB03E54FF029
:1005D0000006E1FB03569CF0000F18BF4EF0010E21
:1005E000A4F1FF04B6F5007F64F5407404D25FEA1D
:1005F0004E0E6D4146EB060642EAC62141EA5551D0
:100600004FEAC52040EA5E504FEACE2EB4F1FD0C11
:1006100088BFBCF5E06F1ED8BEF1004F08BF5FEA8F
:10062000500E50F1000041EB045170BD06F0004641
:1006300046EA010140EA020081EA0301B4EB5C04EE
:10064000C2BFD4EB0C0541EA045170BD41F48011E6
:100650004FF0000E013C00F3AB8014F1360FDEBF0B
:10066000002001F0004170BDC4F10004203C35DAE7
:100670000C341BDC04F11404C4F1200500FA05F36A
:1006800020FA04F001FA05F240EA020001F000420B
:1006900021F0004110EBD37021FA04F642EB060181
:1006A0005EEA430E08BF20EAD37070BDC4F10C04AB
:1006B000C4F1200500FA04F320FA05F001FA04F26F
:1006C00040EA020001F0004110EBD37041F100015B
:1006D0005EEA430E08BF20EAD37070BDC4F1200566
:1006E00000FA05F24EEA020E20FA04F301FA05F2CE
:1006F00043EA020321FA04F001F0004121FA04F276
:1007000020EA020000EBD3705EEA430E08BF20EA45
:10071000D37070BD94F0000F0FD101F0004640007F
:1007200041EB010111F4801F08BF013CF7D041EA01
:10073000060195F0000F18BF704703F00046520005
:1007400043EB030313F4801F08BF013DF7D043EAD6
:100750000603704794EA0C0F0CEA135518BF95EA8C
:100760000C0F0CD050EA410618BF52EA4306D1D113
:1007700081EA030101F000414FF0000070BD50EA32
:10078000410606BF1046194652EA430619D094EABC
:100790000C0F02D150EA013613D195EA0C0F05D1A6
:1007A00052EA03361CBF104619460AD181EA0301FA
:1007B00001F0004141F0FE4141F470014FF00000B2
:1007C00070BD41F0FE4141F4780170BD70B54FF04D
:1007D000FF0C4CF4E06C1CEA11541DBF1CEA1355CD
:1007E00094EA0C0F95EA0C0F00F0A7F8A4EB0504AF
:1007F00081EA030E52EA03354FEA013100F08880A6
:100800004FEA03334FF0805545EA131343EA12636E
:100810004FEA022245EA111545EA10654FEA002623
:100820000EF000419D4208BF964244F1FD0404F5DC
:10083000407402D25B084FEA3202B61A65EB030538
:100840005B084FEA32024FF480104FF4002CB6EBF5
:10085000020E75EB030E22BFB61A754640EA0C0075
:100860005B084FEA3202B6EB020E75EB030E22BFB5
:10087000B61A754640EA5C005B084FEA3202B6EBF6
:10088000020E75EB030E22BFB61A754640EA9C00B5
:100890005B084FEA3202B6EB020E75EB030E22BF85
:1008A000B61A754640EADC0055EA060E18D04FEA43
:1008B000051545EA16754FEA06164FEAC30343EAE3
:1008C00052734FEAC2025FEA1C1CC0D111F4801FB0
:1008D0000BD141EA00014FF000004FF0004CB6E7A9
:1008E00011F4801F04BF01430020B4F1FD0C88BF48
:1008F000BCF5E06F3FF6AFAEB5EB030C04BFB6EB53
:10090000020C5FEA500C50F1000041EB045170BD45
:100910000EF0004E4EEA113114EB5C04C2BFD4EB72
:100920000C0541EA045170BD41F480114FF0000EF6
:10093000013C90E645EA060E8DE60CEA135594EA72
:100940000C0F08BF95EA0C0F3FF43BAF94EA0C0F75
:100950000AD150EA01347FF434AF95EA0C0F7FF4EA
:1009600025AF104619462CE795EA0C0F06D152EA3E
:1009700003353FF4FDAE1046194622E750EA410622
:1009800018BF52EA43067FF4C5AE50EA41047FF433
:100990000DAF52EA43057FF4EBAE12E74FF0FF3C98
:1009A00006E000BF4FF0010C02E000BF4FF0010C69
:1009B0004DF804CD4FEA410C7FEA6C5C4FEA430CE2
:1009C00018BF7FEA6C5C1BD001B050EA410C0CBF31
:1009D00052EA430C91EA030F02BF90EA020F002093
:1009E000704710F1000F91EA030F58BF994208BFFA
:1009F00090422CBFD8176FEAE37040F001007047B7
:100A00004FEA410C7FEA6C5C02D150EA013C07D10D
:100A10004FEA430C7FEA6C5CD6D152EA033CD3D058
:100A20005DF8040B704700BF8446104662468C4652
:100A30001946634600E000BF01B5FFF7B7FF002885
:100A400048BF10F1000F01BD4DF808EDFFF7F4FFAE
:100A50000CBF012000205DF808FB00BF4DF808ED39
:100A6000FFF7EAFF34BF012000205DF808FB00BF5C
:100A70004DF808EDFFF7E0FF94BF012000205DF87E
:100A800008FB00BF4DF808EDFFF7CEFF94BF012033
:100A900000205DF808FB00BF4DF808EDFFF7C4FF2C
:100AA00034BF012000205DF808FB00BF4FEA410C75
:100AB0007FEA6C5C02D150EA013C0AD14FEA430C58
:100AC0007FEA6C5C02D152EA033C02D14FF0000095
:100AD00070474FF0010070474FEA410212F50012D3
:100AE00015D211D56FF47873B3EB625212D94FEA75
:100AF000C12343F0004343EA505311F0004F23FA5F
:100B000002F018BF404270474FF00000704750EAB3
:100B1000013005D111F0004008BF6FF00040704770
:100B20004FF00000704700BF4FEA4102B2F1E043CE
:100B300024BFB3F5001CDCF1FE5C0DD901F0004CC4
:100B40004FEAC0024CEA5070B2F1004F40EB830014
:100B500008BF20F00100704711F0804F21D113F140
:100B60003872BCBF01F00040704741F480114FEA79
:100B70005252C2F11802C2F1200C10FA0CF320FA02
:100B800002F018BF40F001004FEAC1234FEAD3231F
:100B900003FA0CFC40EA0C0023FA02F34FEA430389
:100BA000CCE77FEA625307D150EA01331EBF4FF012
:100BB000FE4040F44000704701F0004040F0FE402D
:100BC00040F40000704700BF80F0004002E000BF2A
:100BD00081F0004142001FBF5FEA410392EA030F28
:100BE0007FEA226C7FEA236C6AD04FEA1262D2EB72
:100BF0001363C1BFD218414048404140B8BF5B4277
:100C0000192B88BF704710F0004F40F4000020F00F
:100C10007F4018BF404211F0004F41F4000121F025
:100C20007F4118BF494292EA030F3FD0A2F101026F
:100C300041FA03FC10EB0C00C3F1200301FA03F1AD
:100C400000F0004302D5494260EB4000B0F5000FD0
:100C500013D3B0F1807F06D340084FEA310102F18F
:100C60000102FE2A51D2B1F1004F40EBC25008BF41
:100C700020F0010040EA03007047490040EB00000B
:100C8000013A28BFB0F5000FEDD2B0FA80FCACF10C
:100C9000080CB2EB0C0200FA0CF0AABF00EBC25039
:100CA00052421843BCBFD0401843704792F0000F27
:100CB00081F4000106BF80F400000132013BB5E77A
:100CC0004FEA41037FEA226C18BF7FEA236C21D0F0
:100CD00092EA030F04D092F0000F08BF0846704755
:100CE00090EA010F1CBF0020704712F07F4F04D123
:100CF000400028BF40F00040704712F100723CBF36
:100D000000F50000704700F0004343F0FE4040F45F
:100D1000000070477FEA226216BF08467FEA23631D
:100D20000146420206BF5FEA412390EA010F40F408
:100D3000800070474FF0000304E000BF10F0004354
:100D400048BF40425FEA000C08BF704743F096433B
:100D500001464FF000001CE050EA010208BF704756
:100D60004FF000030AE000BF50EA010208BF7047DD
:100D700011F0004302D5404261EB41015FEA010CF2
:100D800002BF84460146002043F0B64308BFA3F1EA
:100D90008053A3F50003BCFA8CF2083AA3EBC253CC
:100DA00010DB01FA02FC634400FA02FCC2F12002EB
:100DB000BCF1004F20FA02F243EB020008BF20F022
:100DC0000100704702F1200201FA02FCC2F1200288
:100DD00050EA4C0021FA02F243EB020008BF20EA7D
:100DE000DC7070477BB972B90029BEBF00204FF09C
:100DF000004106E008BF00281CBF6FF000414FF023
:100E0000FF3001F05FB9ADF1080C6DE904CE0029A7
:100E100009DB002B1ADB00F083F8DDF804E0DDE9E4
:100E2000022304B07047404261EB4101002B1BDB01
:100E300000F076F8DDF804E0DDE9022304B040427A
:100E400061EB4101524263EB43037047524263EB53
:100E5000430300F065F8DDF804E0DDE9022304B0A7
:100E6000404261EB41017047524263EB430300F0A3
:100E700057F8DDF804E0DDE9022304B0524263EBE9
:100E80004303704753B94AB9002908BF00281CBF63
:100E90004FF0FF314FF0FF3001F014B9ADF1080C05
:100EA0006DE904CE00F03CF8DDF804E0DDE9022352
:100EB00004B0704738B50022002304460D46FFF702
:100EC000CDFD28B920462946BDE8384000F00AB8D3
:100ED000204605F1004100F005F8404261EB410178
:100EE00038BD00BFD0B50C4B002206460F46FFF7B9
:100EF00043FB01F0E9F80446FFF7C4FA074B002270
:100F0000FFF73AFB02460B4630463946FFF77CF9BD
:100F100001F0DAF82146D0BD0000F03D0000F041BC
:100F20002DE9F047089D04468E46002B4DD18A429C
:100F3000944669D9B2FA82F252B101FA02F3C2F1CF
:100F4000200120FA01F10CFA02FC41EA030E944060
:100F50004FEA1C48210CBEFBF8F61FFA8CF708FB81
:100F600016E341EA034306FB07F199420AD91CEB59
:100F7000030306F1FF3080F01F81994240F21C818B
:100F8000023E63445B1AA4B2B3FBF8F008FB1033D3
:100F900044EA034400FB07F7A7420AD91CEB040408
:100FA00000F1FF3380F00A81A74240F207816444D8
:100FB000023840EA0640E41B00261DB1D44000235D
:100FC000C5E900433146BDE8F0878B4209D9002DC1
:100FD00000F0EF800026C5E9000130463146BDE84B
:100FE000F087B3FA83F6002E4AD18B4202D38242B5
:100FF00000F2F980841A61EB030301209E46002D64
:10100000E0D0C5E9004EDDE702B9FFDEB2FA82F2B8
:10101000002A40F09280A1EB0C014FEA1C471FFA16
:101020008CFE0126200CB1FBF7F307FB131140EAFD
:1010300001410EFB03F0884208D91CEB010103F1CA
:10104000FF3802D2884200F2CB804346091AA4B28C
:10105000B1FBF7F007FB101144EA01440EFB00FE60
:10106000A64508D91CEB040400F1FF3102D2A645C5
:1010700000F2BB800846A4EB0E0440EA03409CE764
:10108000C6F12007B34022FA07FC4CEA030C20FA11
:1010900007F401FA06F31C43F9404FEA1C4900FA31
:1010A00006F3B1FBF9F8200C1FFA8CFE09FB1811AE
:1010B00040EA014108FB0EF0884202FA06F20BD921
:1010C0001CEB010108F1FF3A80F08880884240F271
:1010D0008580A8F102086144091AA4B2B1FBF9F0B5
:1010E00009FB101144EA014100FB0EFE8E4508D9B0
:1010F0001CEB010100F1FF346CD28E456AD9023835
:10110000614440EA0840A0FB0294A1EB0E01A14219
:10111000C846A64656D353D05DB1B3EB080261EB87
:101120000E0101FA07F722FA06F3F1401F43C5E961
:10113000007100263146BDE8F087C2F12003D84097
:101140000CFA02FC21FA03F3914001434FEA1C47D9
:101150001FFA8CFEB3FBF7F007FB10360B0C43EACB
:10116000064300FB0EF69E4204FA02F408D91CEB7B
:10117000030300F1FF382FD29E422DD90238634479
:101180009B1B89B2B3FBF7F607FB163341EA034119
:1011900006FB0EF38B4208D91CEB010106F1FF3868
:1011A00016D28B4214D9023E6144C91A46EA00465F
:1011B00038E72E46284605E70646E3E61846F8E6F1
:1011C0004B45A9D2B9EB020864EB0C0E0138A3E73A
:1011D0004646EAE7204694E74046D1E7D0467BE71B
:1011E000023B614432E7304609E76444023842E793
:1011F00003685A004CBF43F0004323F000431844F7
:10120000704700BF2DE9F84329B34F1E0446154629
:101210003E464FF0000808EB060101EBD171491082
:1012200004EBC1094846FFF7E3FF0346C800083056
:101230008F42204409D0AB4209D8FFF7D9FF0138CB
:10124000A8420AD201F10108E5E7AB4205D9884579
:1012500001D04E1EDFE74FF000094846BDE8F88395
:10126000012807D0022807D0044B00280CBF1846DD
:10127000002070470248704702487047391900083B
:101280003D1900084119000830B5234B83B00446CE
:101290008D1E3BB301A92846AFF30080E8B1019948
:1012A0002A46FFF7AFFF0146B8B1FFF7A1FF4B6831
:1012B000A064012B2CD0002B01F1040024DBFFF7EC
:1012C00097FF0023C4E913030368002B11DBFFF72A
:1012D0008FFF2061002003B030BD0023092023616F
:1012E00003B030BD0D4B0E49C91AC9101846019103
:1012F000D6E7C3F30360FFF7B3FF0028206114BFF4
:101300000020092003B030BD0123C4E91303DBE74B
:10131000002323610520DEE700000000BCE0040894
:101320009CE104080368DA0710B5044606D49B075D
:1013300000F1480009D500F05BFC2368590709D586
:101340001A070ED5DB0613D510BD00F049FC236843
:101350005907F5D404F1D00000F052FC23681A07B5
:10136000F0D404F5A87000F053FC2368DB06EBD43E
:1013700004F5E870BDE8104000F08EBC092070470D
:101380000346006800B11844704700BF704700BFB3
:1013900070B504460E46316C2046FFF775FF0546D2
:1013A00088B9326C62612369324621460120984730
:1013B0000828F0D0072806D12846316CFFF7E6FF51
:1013C000301D00F001FC3BF08FFB00BF2DE9F04722
:1013D0000D1DD0F80C80D0F81890074614460FCD9C
:1013E000ADF5727D0DF10C0CACE80F000FCDACE843
:1013F0000F000FCDACE80F0095E80F0002AE4FF0E4
:10140000000E8CE80F00C6F800E020E0336C7B6132
:101410004FF4F07231467AA800F076FE3B697AAA62
:10142000394650469847889B73642146CDE9006948
:1014300005463B463A460120C0470446E0B94FF412
:10144000F0727AA9304600F05FFE082D1AD1316C97
:101450003846FFF719FF09345FFA84FA0546002879
:10146000D4D0B36B73643A46CDE900693B464AF089
:1014700010010120C04700B1092528460DF5727DF5
:10148000BDE8F087072DF7D12046316CFFF77EFFCE
:1014900003A800F099FB00BF406C7047F0B5CB6B20
:1014A0000B6401F1040C0E460546BCE80F00F9B0D0
:1014B00001AC0FC4BCE80F000FC4BCE80F000FC4A0
:1014C0009CE80F004FF0FF3784E80F00009706E01C
:1014D0002B696A46294698470828044608D110997E
:1014E0002846FFF7D1FE0028F2D0092079B0F0BDE0
:1014F0006846FFF717FF062CF7D131462846FFF75D
:1015000047FF00BFC160D96B826119640022194690
:101510005CE700BF70B5C66843690B64AEB9036988
:101520000A4604460D46014602209847072805D082
:1015300008280FD129462046FFF72AFF3046296C9C
:10154000FFF724FF281D00F03FFB0122FFF73EFFBD
:101550003BF0CAFA3BF0C8FAC2681AB1CA6B0A6417
:10156000002233E79AE700BF704700BF8368014657
:101570000BB1012018477047012912D009D873B95F
:101580000F2A0CD800EB820218465368009A1360A9
:1015900070470339012994BF0120022070470220BF
:1015A00070470846704700BF00B585B00A46002363
:1015B00003A900911946FFF7DFFF039805B05DF816
:1015C00004FB00BF012912D009D873B90F2A0CD827
:1015D00000EB8200009A1268426018467047033997
:1015E000012994BF0120022070470220704708465D
:1015F000704700BF10B584B0002303AC0392009481
:101600000A461946FFF7DEFF04B010BD70B5D36B74
:10161000136402F1040C05460C46BCE80F00ADF55E
:101620000E7D0DF15C0EAEE80F00BCE80F00AEE8D9
:101630000F00BCE80F00AEE80F009CE80F004FF071
:10164000FF368EE80F00169610E0FFF7D3FF214615
:1016500016A8A847034616AA6946082083B9049B22
:101660009847052806460CD0092809D026996846CF
:10167000FFF70AFE03466A460C2116A8002BE4D0A9
:10168000092616A8FFF74EFE30460DF50E7D70BDFB
:101690002DE9F04FCC6C89B01E4654F8043B0694FB
:1016A0000D46174600F00308002E79D01A0C1B04D3
:1016B00005938DF81D200223D2B204EB82048DF82D
:1016C0001C302B6DB8F1020F08BFAC6B13F0010397
:1016D0000CD005A9384600F079FB18B9082009B0EC
:1016E000BDE8F08F092009B0BDE8F08FD4F800A064
:1016F000BAF1000FEDD0019300F008030293022E1F
:101700004AD0B4F800A0B4F802900434AB6C29F0CD
:10171000010B0F2138469B44FFF746FF834539D81C
:101720002AF001039B44834594BF002001204FEA27
:10173000490303F002030AF0010A43EA0A03012BFA
:1017400049D0022B32D0002BCCD1B8F1000F02D0FF
:10175000002840F0CD800434D4F800A0BAF1000F86
:10176000CDD105A9384600F031FB0028BAD1019B44
:10177000002BB3D00F213846FFF716FF0E2102468B
:101780003846FFF737FF38466A4A0F21FFF732FF26
:101790000720A8E70020CAE7D4F804900834B5E78A
:1017A0001B0205930323ADF81C308AE7236823F05E
:1017B000004BB8F1000F45D128B1029A002A5CD045
:1017C000BBF1000F74D0002B00DA04340BF1010BD5
:1017D00004EB8B04C0E7B8F1000F19D1B0B1636816
:1017E0002268991C4FEAD2723FF47CAF05F1580190
:1017F0000133049100F09080201DFFF7C1FD04AB80
:1018000001462846AFF3008000285BD10834A3E7E7
:101810000D213846D5F82090FFF7C6FE8145F5D159
:10182000AB6A9C42F2D12046FFF7E2FC0F21024650
:101830003846FFF7DFFE38462A460021FFF7DAFE7A
:10184000072050E70D213846D5F82090FFF7ACFE71
:10185000814501D02368B6E7AB6A9C42FAD10423E4
:101860000022C5E90B23E318C5F828B06B63236891
:10187000002B59DB01230193A8E705F15803CDF8AC
:101880000C8004F1040AB04691461E460EE0504614
:101890000496FFF775FD0022014604AB284609F1C6
:1018A00001090AF1040AAFF30080E0B9D945EED18D
:1018B0000D213846FFF778FE049BAC62C5E90803AA
:1018C000062010E781460D213846FFF76DFEB9F17D
:1018D000020F286225D12B46049A43F82C2F6B6205
:1018E000AC620620FFE646462368DDF80C806AE716
:1018F0002046FFF77DFC04340246AC6328461446BC
:10190000AFF3008000283FF4EDAE384622460F21A9
:10191000FFF770FE0720E6E60D213846FFF744FE8C
:101920002862049B6B62DBE70BF1010004EB800093
:101930007AE700BF000000000023A9E60123A7E624
:101940000223A5E62DE9F0430646C3B015461C4622
:10195000042900F2BF80DFE801F09E57BD2D03008F
:10196000002C40F0B780102A00F2B4800368D8063B
:1019700000F1F98020AF384600F098F9B46B394691
:1019800000234FF0010C0CFA03F22A42204603F127
:10199000010303D050F8042B0A600446042B01F124
:1019A0000401F0D13846B46300F076F9002043B06A
:1019B000BDE8F083032C40F08D8094B204EB124319
:1019C000102B4FEA124500F2858003681F0700F1D3
:1019D000D28020AF384600F03DF9B26B07EBC5016D
:1019E00054B10B46D01A01EBC401E4001D5843F872
:1019F000045B8B42FAD122443846B26300F008F906
:101A0000002043B0BDE8F083012C4FEA124895B2A4
:101A10005CD0052C5ED108EB0509B9F1200F59D82F
:101A2000B8F10F0F79D9A946002D40F08A80B36B29
:101A30006DB320AF4FF0000907EBC807043F03EB7D
:101A4000C50553F8041B47F8041FAB42F9D1B9F19F
:101A5000000F0FD06F464146102938BF102107EB09
:101A6000C101843903EBC90553F8040B41F8040F95
:101A7000AB42F9D1012C00F08680B8F10F0FB563AD
:101A800047D9B9F1000F02D0684600F0B9F800203C
:101A900043B0BDE8F083ECB9806B23461FFA82FCAB
:101AA0000124371D04FA03F212EA0C0F014604D098
:101AB00051F8042B47F8232008460133102BF1D1AD
:101AC00015F40055E3D1B063284604E008EB0503A4
:101AD000102B03D9022043B0BDE8F083B8F10F0FFB
:101AE000F8D83368DA0706D5304623F0030340F808
:101AF000483B00F079F820AF384600F075F8B36B3A
:101B0000002D97D11D460435B563384600F068F8BE
:101B1000BDE720A800F06CF8B3E7B9F1100F40D989
:101B2000A9F110093368D90708D523F0010330461D
:101B300043F0020340F8483B00F05EF8B9F1000FB3
:101B400032D033685A0720D4B8F10F0F25D96F4629
:101B50003846C8F1100500F057F8002DB36B7FF739
:101B60007AAF20AF68E723F01003336006F5E87022
:101B700000F09CF8FEE623F00803036000F5A8706F
:101B800000F068F825E720AFBDE7304623F00403F6
:101B900040F8D03B00F038F8D6E720A800F02CF849
:101BA000D5E74FF00009BDE7B8F10F0F3FF63FAFA3
:101BB00020AF384600F020F8B36B002D7FF43AAF29
:101BC000384600F015F862E700F1340191E838007A
:101BD0009C46A6464CF8045D90E8FF0FE54600BD24
:101BE00090EC210B704700BF80EC210B704700BFC9
:101BF00090EC200B704700BF80EC200B704700BFBB
:101C0000D0EC200B704700BFC0EC200B704700BF2A
:101C1000F0EC0201F0EC0211F0EC0221F0EC0231E8
:101C2000F0EC0241F0EC0251F0EC0261F0EC0271D8
:101C3000F0EC0281F0EC0291F0EC02A1F0EC02B1C8
:101C4000F0EC02C1F0EC02D1F0EC02E1F0EC02F1B8
:101C5000704700BFE0EC0201E0EC0211E0EC022171
:101C6000E0EC0231E0EC0241E0EC0251E0EC026118
:101C7000E0EC0271E0EC0281E0EC0291E0EC02A108
:101C8000E0EC02B1E0EC02C1E0EC02D1E0EC02E1F8
:101C9000E0EC02F1704700BFB0FC0181B0FC0191A3
:101CA000B0FC01A1B0FC01B1704700BFA0FC0181F4
:101CB000A0FC0191A0FC01A1A0FC01B1704700BFF4
:101CC000EC4600B52DE900502DE9FF1F4FF0000351
:101CD0002DE90C0001A9FFF7E1FBDDF840E012B0AF
:101CE000704700BFEC4600B52DE900502DE9FF1FFD
:101CF0004FF000032DE90C0001A9FFF70BFCDDF804
:101D000040E012B0704700BFEC4600B52DE900502E
:101D10002DE9FF1F4FF000032DE90C0001A9FFF78B
:101D20001BFCDDF840E012B0704700BFEC4600B588
:101D30002DE900502DE9FF1F4FF000032DE90C00A5
:101D400001ABFFF7DFFBDDF840E012B0704700BFEA
:101D5000EC4600B52DE900502DE9FF1F4FF00003C0
:101D60002DE90C0001AAFFF751FCDDF840E012B0AC
:101D7000704700BF027A03467AB9427AA2B141683D
:101D8000013A10B44272086803220C1D1A72020252
:101D90005C60000E10BC1A6070470068013A1A724D
:101DA00002021A60000E7047B020704700B585B07F
:101DB000002303AA009219460C22FFF7DDFB0398CB
:101DC00005B05DF804FB00BFF0E700BF2DE9F0436C
:101DD000054685B00E464FF000083046FFF7CAFFB3
:101DE000B028044600F0BA80070620D500F0F003C2
:101DF000802B4DD0902B36D0A02B60D0B02B74D040
:101E0000C02B00F08B8000F0F803D02B0BD100F03A
:101E100007020132052342F4002201212846FFF780
:101E200091FD0028D9D0092005B0BDE8F0838300DA
:101E3000DBB21F1D0DF10C0900231946CDF80090EF
:101E40000D222846FFF798FB039BCDF80090600613
:101E50004CBFDF1BFF1800230D22194628460397AD
:101E6000FFF7B0FBB9E700F00D030D2BDBD003AF9C
:101E7000002300F00F02194600972846FFF77CFB6D
:101E8000002300970D2219462846FFF79BFBA4E785
:101E90003046FFF76FFF24022043B0F5004FC2D059
:101EA00004010023A2B219462846FFF74BFD002883
:101EB000B9D114F4004F18BF4FF001088DE7C243A9
:101EC00002F007034FF47F621A41010702F47F62B8
:101ED0004FF0000348BF42F4804219462846FFF7FE
:101EE00031FD00283FF479AF9DE7B1283BD0B228FF
:101EF00000F09380B32841D000F0FC03B42B92D0C3
:101F000000F007020132012342F40022194628465C
:101F1000FFF718FD00283FF460AF84E7C6284AD0D9
:101F2000C72854D000F0F803C02B63D0C82868D06D
:101F3000C9287FF478AF3046FFF71CFF020300F09A
:101F40000F0002F4702201300243012105232846CC
:101F5000FFF7F8FC00283FF440AF64E7B8F1000F4A
:101F600018D0002060E73046FFF704FF0246002843
:101F70003FF459AF10F0F003C8D054E73046FFF7F4
:101F8000F9FE020300F00F03013302F470221A433A
:101F90000123BBE703AC43460E224146009428468A
:101FA000FFF7EAFA009443460F2241462846FFF71E
:101FB00009FB404638E73046FFF7DCFE020300F03D
:101FC0000F03013302F470221A4303239EE73046C5
:101FD000FFF7D0FE024600283FF425AF10F0F003D3
:101FE0007FF421AF04212846FFF7ACFC00283FF422
:101FF000F4AE18E700F00F020132032342F420226E
:1020000084E73046FFF7B6FE00F0F00200F00F0361
:102010001032013343EA023297E700230DF10C0935
:102020000D221946CDF800902846FFF7A5FA304654
:10203000FFF7A0FE02064FF002040CD5039B00F050
:102040007F00A040184403903046FFF793FE03063C
:1020500004F10704F2D4039BCDF8009000F07F0256
:10206000A24003F501731A440023039219460D227E
:102070002846FFF7A7FAB0E610B5C26C536884B0E3
:102080004FF0030C08321C0208461B0E01A90194F4
:1020900002928DF80CC08DF80D30FFF797FE04B05A
:1020A00010BD00BF08B5FFF78FFE806C08BD00BFF4
:1020B00008B5FFF789FEC06CC379023300EB8300DB
:1020C00008BD00BF704700BF4A0011D212F50012D0
:1020D00011D20DD56FF47873B3EB62520ED44FEA80
:1020E000C12343F0004343EA505323FA02F0704700
:1020F0004FF00000704750EA013002D14FF0FF303E
:1021000070474FF000007047844641EA000313F027
:1021100003036DD1403A41D351F8043B40F8043BEE
:1021200051F8043B40F8043B51F8043B40F8043BB1
:1021300051F8043B40F8043B51F8043B40F8043BA1
:1021400051F8043B40F8043B51F8043B40F8043B91
:1021500051F8043B40F8043B51F8043B40F8043B81
:1021600051F8043B40F8043B51F8043B40F8043B71
:1021700051F8043B40F8043B51F8043B40F8043B61
:1021800051F8043B40F8043B51F8043B40F8043B51
:1021900051F8043B40F8043B403ABDD2303211D3F1
:1021A00051F8043B40F8043B51F8043B40F8043B31
:1021B00051F8043B40F8043B51F8043B40F8043B21
:1021C000103AEDD20C3205D351F8043B40F8043BF1
:1021D000043AF9D2043208D0D2071CBF11F8013BEF
:1021E00000F8013B01D30B8803806046704700BFB5
:1021F000082A13D38B078DD010F003038AD0C3F1C4
:102200000403D21ADB071CBF11F8013B00F8013BA5
:1022100080D331F8023B20F8023B7BE7043AD9D364
:10222000013A11F8013B00F8013BF9D20B78037039
:102230004B7843708B7883706046704700000000D5
:10224000A2EB0300704700BF02780B78012A28BF79
:102250009A42F5D16DE9044540EA0104CDE90267EF
:102260006FF0000C4FEA447212B380EA010414F0DC
:10227000070F6AD100F0070420F0070004F00305FF
:1022800021F007014FEAC505F0E8042314F0040F1C
:10229000F1E804670CFA05F462EA040266EA04064F
:1022A0000AD063EA0403624667EA0407664603E06D
:1022B000F0E80423F1E8046782FA4CF582EA0604A8
:1022C000A4FA8CF46CBB83FA4CF583EA0705A5FAF3
:1022D0008CF595B950E9022351E9026782FA4CF571
:1022E00082EA0604A4FA8CF483FA4CF583EA070523
:1022F000A5FA8CF52543DBD09CB92DBAB5FA85F447
:1023000024F0070427FA04F1DDE9026723FA04F355
:1023100003F0FF0001F0FF01FDE80445A0EB010020
:10232000704724BAB4FA84F424F0070426FA04F1BE
:10233000DDE9026722FA04F202F0FF0001F0FF017A
:10234000FDE80445A0EB0100704714F0030F3CD1F9
:1023500010F0030428D150F8082B51F8083B82FAFA
:102360004CF582EA0305A5FA8CF55DB950F8042C0A
:1023700051F8043C82FA4CF582EA0305A5FA8CF583
:10238000002DE8D02DBAB5FA85F424F0070423FA1D
:1023900004F122FA04F202F0FF0001F0FF01FDE86F
:1023A0000445A0EB010070474FEAC40420F003008D
:1023B00050F8082B21F0030151F8083B0CFA04F403
:1023C00062EA040263EA0403C9E710F003041AD0C6
:1023D000A1EB040120F00300E40750F8042B06D021
:1023E0000FD28B785FFAA2F4E41A06D12BB1CB7826
:1023F0005FFAB2F4E41A00D11BB920465DF8104B25
:10240000704701F1040150F8042BCC0721F00301BF
:1024100051F8043B48D824D222F07F4482FA4CF58C
:1024200094EA1325A5FA8CF50AD165B951F8043B55
:1024300084EA0204B4EB036F0ED150F8042BEBE7EF
:102440004FEA132355E035F07F454DD10878FDE87C
:102450000445C0F1000070474FEA126203F0FF0329
:1024600047E002EA1C4482FA4CF594EA1345A5FAC7
:102470008CF50AD165B951F8043B84EA0204B4EB47
:10248000034F0CD150F8042BEBE74FEA134330E035
:1024900015EA1C4528D10B884FEA124229E04FEA81
:1024A000124203EA1C4324E002F0FF0482FA4CF5D6
:1024B00094EA1365A5FA8CF50AD165B951F8043B85
:1024C00084EA0204B4EB032F09D150F8042BEBE7A4
:1024D0004FEA13630DE015F0FF0F05D10B684FEACB
:1024E000122223F07F4304E04FF00000FDE8044592
:1024F000704712BA1BBA82FA4CF482EA0304A4FAB7
:102500008CF5B5FA85F402FA04F203FA04F34FEA03
:102510001260FDE80445A0EB136070470000000066
:1025200000000000000000000000000000000000AB
:10253000000000000000000000000000000000009B
:1025400090F800F06DE9024520F007016FF0000CF3
:1025500010F0070491F820F040F049804FF000049B
:102560006FF00700D1E9002391F840F000F1080076
:1025700082FA4CF2A4FA8CF283FA4CF3A2FA8CF3AE
:102580004BBBD1E9022382FA4CF200F10800A4FA15
:102590008CF283FA4CF3A2FA8CF3E3B9D1E9042369
:1025A00082FA4CF200F10800A4FA8CF283FA4CF3A0
:1025B000A2FA8CF37BB9D1E9062301F1200182FA5A
:1025C0004CF200F10800A4FA8CF283FA4CF3A2FA60
:1025D0008CF3002BC6D0002A04BF04301A4612BA6E
:1025E000B2FA82F2FDE8024500EBD2007047D1E971
:1025F000002304F00305C4F100004FEAC50514F000
:10260000040F91F840F00CFA05F562EA05021CBFD0
:1026100063EA050362464FF00004A9E700000000EA
:1026200001F0FF01102A2BDB10F0070F08D010F883
:10263000013B013A8B422DD010F0070F42B3F6D187
:10264000F0B441EA012141EA014122F007047FF0A0
:1026500000070023F0E80256083C85EA010586EAF7
:10266000010685FA47F5A3FA87F586FA47F6A5FA33
:1026700087F68EB9EED1F0BC01F0FF0102F007023F
:1026800032B110F8013B013A83EA010313B1F8D1EA
:102690000020704701387047002D06BF35460338CB
:1026A000073815F0010F07D1013015F4807F02BF04
:1026B000013015F4C03F0130F0BC0138704700BF55
:1026C00000B59FED1B7B1E481E494FF4803200234E
:1026D00085B0C0E9001280ED0A7B0122CDE900330C
:1026E000CDE9023383600361037680F82030C36054
:1026F000C26180F83030426100F040FF68B99FED60
:102700000E7B00230E48029369468DED007B00F09E
:10271000E3FF28B905B05DF804FB00F097FAEEE797
:1027200000F094FA05B05DF804FB00BFAFF3008041
:102730000100000F000000000A000000010000007E
:10274000B00A00200020014000B5194A016889B094
:1027500000239142CDE90233CDE90433069302D040
:1027600009B05DF804FB02F58C320093506C40F424
:1027700080705064506C00F4807000900098019359
:10278000136B0C4843F004031363136B9FED067B3C
:1027900003F00403019302A98DED027B019B01F07C
:1027A0006FFA09B05DF804FB0100000003000000AF
:1027B000002001400008024010B582B0144B0024F4
:1027C00000941A6B42F480021A63186B00F48000C4
:1027D000009000980194186B40F4001018631B6B74
:1027E00003F400132246052101930B20019B01F005
:1027F00033F80B2001F06EF822463B20052101F052
:102800002BF83B2002B0BDE8104001F063B800BFD8
:1028100000380240044B036010B48023034C0C606A
:102820005DF8044B13607047000D0020000B002082
:1028300010B5124CA646BEE80F008EB0EC46ACE8D0
:102840000F009EE807008CE807000021684637F07B
:102850003BFA0B4B04F11C0C1860BCE80F0007ACF2
:102860000FC49CE8070084E80700002107A837F0A0
:102870002BFA044B18600EB010BD00BF006D0408A9
:10288000FC0A0020F80A002070B500248CB0CDE9C5
:102890000644CDE908443D4B01940A941A6B3C4D23
:1028A0003C4E42F004021A631A6B02F004020192D9
:1028B000019A02941A6B42F080021A631A6B02F0BA
:1028C00080020292029A03941A6B42F001021A6388
:1028D0001A6B02F001020392039A04941A6B42F0FD
:1028E00002021A631A6B02F002020492049A05941F
:1028F0001A6B42F008021A631B6B03F0080305937E
:10290000284601220221059B01F0E0FA06A9304683
:1029100042F6FC320323CDE90623089401F0B0F916
:1029200002220023CDE90623304606A9022308939C
:1029300001F0A6F902221123CDE9062306A90022FF
:1029400003232846CDE9082301F09AF94FF6BF7218
:10295000032306A910480894CDE9062301F090F955
:1029600028464FF40742032306A9CDE9062308941D
:1029700001F086F9042203230848089406A9CDE94A
:10298000062301F07DF90CB070BD00BF0038024095
:10299000000002400008024000040240000C024017
:1029A00010B50C480C4C4FF440720023C0E90042B3
:1029B00003214FF4FA52C0E90231C0E90432C0E900
:1029C0000633036201F0D8FA00B910BDBDE810402B
:1029D00000F03CB9B40D0020003C00402DE9F0436C
:1029E0003C4A01688FB000239142CDE90833CDE91C
:1029F0000A330C93079302D00FB0BDE8F083322363
:102A00000122CDE904230446022304A8069302F020
:102A10001DF8002858D1304B3048314D0026019622
:102A20001A6C42F400421A641A6C02F400420192D9
:102A3000019A02961A6B42F001021A631A6B02F0B5
:102A400001020292029A03961A6B42F004021A6380
:102A50001B6B03F004030393102202234FF00008C2
:102A60004FF00009062708A9CDE90823CDE90A8916
:102A7000039B0C9701F004F94FF4A052022319486C
:102A80000C9708A9CDE90823CDE90A8901F0F8F8E7
:102A9000154A6E624FF48063C5E900262B614FF43E
:102AA00080524FF48043C5E9052328464FF48073D4
:102AB000C5E90266C5E9073600F01AFF38B9E563D3
:102AC000AC630FB0BDE8F08300F0C0F8A3E700F0FE
:102AD000BDF8F4E7003C004000380240000002402E
:102AE000540D0020000802401060024010B5074C51
:102AF00082B0002301220DF10701204604F0B0FB53
:102B00000028F6D19DF8070002B010BDF80F002094
:102B100010B5002394B0CDE90B33CDE90233CDE9F4
:102B20000433274900930D930693086C254A40F01F
:102B300080500864096C01F0805100910099019364
:102B4000136843F48043136013689FED197B03F40B
:102B5000804301220221019304204FF480030A9252
:102B6000A822CDE90E13CDE91002072308A88DEDA8
:102B7000087BCDE91213019C01F054FC08B172B638
:102B8000FEE79FED0D7B4FF4A0530022CDE9042317
:102B900002A84FF4805305218DED027B069301F0CE
:102BA0005FFE08B172B6FEE701F020FE14B010BD62
:102BB00005000000000001000F00000002000000FE
:102BC000003802400070004008B500F099FC12483F
:102BD00039F0E6FEFFF79CFFFFF756FEFFF7ECFD2E
:102BE00000F0C0F800F034F800F0FEF900F0D4FB7B
:102BF00000F036FAFFF7D4FE00F026FCFFF760FD88
:102C000000F066FB05F02AFD07F044F9FFF710FE1F
:102C100037F054F8FEE700BFF80F0020094B0268B8
:102C20009A4210B5044603D0074B9C4205D010BD14
:102C300000F080FC044B9C42F9D1BDE8104001201B
:102C40002DF0B0BE00000140200F002072B6FEE75C
:102C500010B5002490B02822214606A8CDE90044F2
:102C6000CDE90244CDE904443AF01AFB2348244A52
:102C70007F238360FF23C0E90024C0E90334C0E957
:102C8000054401F0ABFF60BB00221C48ADF80420F6
:102C900001A9CDE904228DF8062002F013F850BBFB
:102CA000184B164800930022694602F0A9FBF8B9B8
:102CB0004FF48071144C0F91002201230F48ADF89E
:102CC000182006A9CDE90922CDE90B428DF81A306A
:102CD00007920D928DF8383002F00AFF20B910B03B
:102CE00010BDFFF7B3FFCFE7FFF7B0FF10B010BD87
:102CF000FFF7ACFFDCE7FFF7A9FFD1E7FC0D0020F1
:102D000000280040010101000080808000B5134AC6
:102D1000016885B000239142CDE9013302D005B0AE
:102D20005DF804FB02224FF480736846009203931F
:102D300001F08CFE70B90A4B0122C3F83C2E05212C
:102D40000022292000F088FD292000F0C3FD05B0F5
:102D50005DF804FBFFF77AFFEDE700BF00280040B5
:102D60000000474210B51048104C4FF48272002307
:102D7000C0E900424FF400410222C0E902130124DD
:102D800002614FF400710A22C0E90541C0E907332E
:102D9000C0E90933C26203F0C3FB00B910BDBDE84E
:102DA0001040FFF753BF00BF7C0E002000300140F1
:102DB00070B5284B026888B000249A42CDE90244DD
:102DC000CDE90444069401D008B070BD03F5843306
:102DD00000945A6C204E42F480525A645A6C02F4A9
:102DE00080520092009A01941A6B42F001021A6319
:102DF0001B6B03F001030193A0220223CDE9022300
:102E000001220323CDE90423054605231348069335
:102E100002A9019B00F034FF114A74624FF0C063B5
:102E2000C6E900234FF480634022336130464FF4FB
:102E30008033C6E90224C6E90544C6E9074300F029
:102E400057FD18B9AE64B56308B070BDFFF7FEFE5C
:102E5000F8E700BF003001401C0E002000000240D7
:102E60005864024082B00E4B00220092596C41F42B
:102E700080415964586C00F48040009000980192A1
:102E8000186C40F0805018641B6C03F08053019361
:102E9000019B0F216FF0010002B000F0DDBC00BF0C
:102EA0000038024030B5014689B00022192000F0F8
:102EB000D3FC192000F00EFD0025164B02955A6C2C
:102EC000154C42F001025A645B6C03F0010301A946
:102ED00003A80293029B01F087FD01F075FD0F4AE4
:102EE0000F4921604300A2FB03239B0C013B40F2EE
:102EF000E7322046C4E903256360A56003F05AFC6D
:102F000010B1012009B030BD204603F0E1FC09B04A
:102F100030BD00BF00380240D40E002083DE1B43CA
:102F20000000014008B501F083FDFEE7FEE700BFA9
:102F3000FEE700BFFEE700BFFEE700BF704700BF2F
:102F4000014800F0ADBD00BF540D0020014803F062
:102F500051BF00BFD40E0020014803F04BBF00BF9B
:102F6000200F0020014803F04DBA00BFFC0D0020E7
:102F7000014800F095BD00BF1C0E002001207047E5
:102F800008B539F0F5FD162303604FF0FF3008BD9A
:102F900008B539F0EDFD16230360FEE70B4A08B5CE
:102FA0000346106828B1034469468B4207D8136072
:102FB00008BD07481060034469468B42F7D939F0D1
:102FC000D7FD0C2303604FF0FF3008BD1C0F00201D
:102FD000B0290120034AD2F8883043F47003C2F8C4
:102FE0008830704700ED00E000B51B484FF080428C
:102FF000026040F24732002387B042606322CDE98D
:103000000233CDE90433CDE90033C0E90232036174
:10301000836103F0CFFB98B94FF480530E480293BD
:1030200002A903F02FFE98B9002200230A4869463E
:10303000CDE9002303F088FF28B907B05DF804FB51
:10304000FFF704FEE8E7FFF701FE07B05DF804FBB9
:10305000FFF7FCFDE8E700BF200F002000000000A4
:1030600010B5414C414A226092B040F28F62002379
:10307000626020466322CDE90233CDE90A33CDE90F
:103080000C33CDE90E33C4E9023210932361A361FE
:1030900003F05AFC18BB00220023334802A9CDE9F3
:1030A000022303F051FF00BB9FED2B7B00222E4833
:1030B0000C920AA98DED0A7B0E9203F0D3FC88B91D
:1030C00022682A4900238A42CDE90433CDE9063338
:1030D00008930DD026498A4223D012B010BDFFF7C5
:1030E000B5FDD8E7FFF7B2FDEAE7FFF7AFFDDBE795
:1030F000204A0093136B43F001031363136B9FED9E
:10310000187B03F00103009300981B48032202235D
:1031100004A98DED047B0792089300F0B1FD12B075
:1031200010BD144A0193136B43F002031363136B36
:103130009FED0B7B03F00203019301980F480322DC
:10314000022304A98DED047B0792089300F098FDFB
:1031500012B010BDAFF3008060000000320000002C
:103160004000000002000000680F00200004004042
:103170000008004000380240000002400004024005
:1031800000B50368B3F1804F83B014D0154A934261
:1031900002D003B05DF804FB134B002201921A6CBD
:1031A00042F004021A641B6C03F004030193019BB8
:1031B00003B05DF804FB03F50E3300220092196C96
:1031C00041F0010119641B6C03F0010300931C2002
:1031D0000521009B00F040FB1C2003B05DF804EBD0
:1031E00000F078BB00080040003802400A4B02683B
:1031F0009A4200D0704782B003F50D33002201924D
:103200001A6C42F002021A641B6C03F00203019371
:10321000019B02B0704700BF0004004000000000A6
:1032200000B50268244989B000238A42CDE90233FF
:10323000CDE90433069305D020498A421CD009B059
:103240005DF804FB1E4A0093136B43F00103136304
:10325000136B9FED177B03F001030093009819484F
:103260000322022302A98DED027B0592069300F052
:1032700007FD09B05DF804FB114A0193136B43F09D
:1032800002031363136B9FED0A7B03F002030193A8
:1032900001980D480322022302A98DED027B0592BD
:1032A000069300F0EDFC09B05DF804FBAFF300807D
:1032B0004000000002000000000400400008004040
:1032C00000380240000002400004024000000000FC
:1032D00000B52F482F4A8FB00023CDE90233CDE946
:1032E0000433CDE90033CDE90633CDE90833CDE928
:1032F0000A330C9383600361836140F28F63C0E9FA
:1033000000236323C36003F055FA30BB4FF48053AE
:103310001F48029302A903F0B5FC78BB1C4803F0D8
:1033200013FB40BB0022002319486946CDE9002366
:1033300003F00AFEE0B99FED147B002214480892C6
:1033400006A98DED067B0A9203F08CFB40B910486C
:10335000FFF766FF0FB05DF804FBFFF777FCD5E7DA
:10336000FFF774FC0A48FFF75BFF0FB05DF804FB42
:10337000FFF76CFCDFE7FFF769FCD3E7FFF766FCBC
:10338000CCE700BFAFF30080600000003C0000000D
:10339000B00F00200008004010B50B480B4C002374
:1033A0004FF4E1310C22C0E90041C0E90233C0E929
:1033B0000432C0E9063303F00BFE00B910BDBDE8CE
:1033C0001040FFF743BC00BFF80F0020004400404E
:1033D00010B51B4A016888B000239142CDE9023341
:1033E000CDE90433069301D008B010BD02F5FA32DE
:1033F0000093106C40F400301064106C00F4003046
:10340000009000980193136B0E4843F0010313637F
:10341000136B9FED097B03F0010301930322072344
:1034200002A98DED027BCDE90523019C00F028FC6B
:1034300008B010BDAFF300800C00000002000000D7
:1034400000440040000002409FED0B7B0E4808B591
:1034500080ED027B9FED0A7B4FF0A042002380EDC0
:10346000067B0260036100F035FD00B908BDBDE8D0
:103470000840FFF7EBBB00BF0800000001000000A0
:1034800002000000000000004010002030B503687A
:1034900089B00024B3F1A04FCDE90244CDE9044442
:1034A000069401D009B030BD134D00942B6B134826
:1034B00043F001032B632B6B03F0010300934FF4E4
:1034C000C0520223CDE902230323059302A90A2354
:1034D0000693009A00F0D4FB6B6B43F080036B63A0
:1034E00001946B6C43F480436B646B6C03F4804316
:1034F0000193019B09B030BD00380240000002403A
:1035000008B50B4B1A6842F400721A601A6842F44C
:1035100080621A601A6842F480721A60032000F018
:1035200089F90F20FFF7BEFCFFF79CFC002008BDC7
:10353000003C0240034A044B11681B780B441360A3
:10354000704700BF4413002004000020014B18689E
:10355000704700BF4413002038B50446FFF7F6FF5C
:10356000631C054602D0044B1B781C44FFF7EEFF9A
:10357000431BA342FAD338BD04000020002800F00A
:103580009F8038B5056C04463DB1236CDB060CD535
:10359000002384F83C30012038BDFFF7D5F865647E
:1035A000236C84F83C50DB06F2D4236C484A23F4A5
:1035B000885323F0020343F0020323645168236815
:1035C00021F44031516051686068014351605A688C
:1035D0002569A06822F480725A60596841EA052181
:1035E0005960596821F0407159605A6802435A6025
:1035F0009968E06821F4006199609A68A16A0243C1
:103600009A60344A914252D09868E56A20F070601E
:1036100098609A6811439960996821F040519960C7
:103620009A682A439A609A6822F002029A609A681D
:10363000217E42EA41029A6094F82020002A41D07B
:103640005968626A41F400615960586820F460402A
:103650005860511E5A6842EA41325A60DA6AE1699A
:10366000656922F47002DA62DA6A013942EA0152CB
:10367000DA62996821F400719960996894F83020B1
:1036800041EA42219960996821F4806199609A68C1
:10369000002042EA85229A606064236C23F00303D1
:1036A00043F001032364002384F83C3038BD9A685A
:1036B00022F070629A609A6822F040529A60B2E7F3
:1036C000012070475A6822F400625A60C6E700BFC2
:1036D000002301400100000F30B590F83C3083B06A
:1036E0000022012B019200F09C80012380F83C30E5
:1036F0000C680368092C2DD81D698A6804EB440EF8
:103700004FF0070C0CFA0EFC25EA0C051D611D6933
:1037100002FA0EF22A431A614A68062AA4462FD8F2
:1037200002EB8202596B053A4FF01F0E0CFA02FCB5
:103730000EFA02F221EA02025A635A6B4CEA0202C2
:103740005A63394A934230D0002380F83C301846FF
:1037500003B030BD1FFA84FC0CEB4C02DD68A2F113
:103760001E0E072202FA0EF225EA0202DA608A68C9
:10377000DD6802FA0EF22A43DA604A68062ACFD9D7
:103780000C2A02EB820236D8196B233A1F250CFA59
:1037900002FC05FA02F221EA02021A631A6B4CEAF1
:1037A00002021A63204A9342CED1122C32D0A4F1E5
:1037B0001003012BC8D81D4A5368102C43F4000392
:1037C0005360C1D11A4B02F146721B6802F52E32CA
:1037D00002F28332A2FB03239B0C03EB83035B0007
:1037E0000193019B002BAFD0019B013B0193019BF7
:1037F000002BF9D1A8E7D96A413A1F250CFA02FC3F
:1038000005FA02F221EA0202DA62DA6A4CEA0202FC
:10381000DA6296E7D2F8043343F48003C2F8043343
:1038200092E7022003B030BD002001400023014098
:10383000000000200749CA6803024FF6FF0003F4A6
:10384000E0630240134343F0BF6343F40033CB60B3
:10385000704700BF00ED00E01C4BDB68C3F30223A0
:1038600000B5C3F1070EBEF1040F03F1040C28BF2D
:103870004FF0040EBCF1060F1BD9033B4FF0FF3C89
:103880000CFA03FC22EA0C024FF0FF3C0CFA0EFC8F
:1038900021EA0C019940002841EA02010CDB00F109
:1038A0006040090100F56140C9B280F800135DF87D
:1038B00004FB00221346E7E7054B00F00F00090167
:1038C0000344C9B219765DF804FB00BF00ED00E0C7
:1038D000FCEC00E0002808DB4109044A00F01F006E
:1038E000012303FA00F042F82100704700E100E0F4
:1038F00038B50446FFF72AFE002C52D02368002278
:10390000022184F8351084F834201A6822F001026C
:1039100005461A6005E0FFF719FE431B052B39D851
:1039200023681A68D107F6D4D4E90120E16802437C
:103930000A43D4E90451A0692A430A43E1691D6896
:1039400002430A4333492940256A2A430A43616AEC
:10395000042928D01A605A6922F007021143D8B20C
:103960002D4A59611038A2FB005212092B4923F449
:103970007F73895CE16523F003035F2888BF04330C
:103980003F228A40A36500209A600123606584F885
:10399000353038BD03232022626584F8353018465F
:1039A00038BD012038BDD4E90B5129430A431A60C0
:1039B0005969A26A21F00701114341F00401002D69
:1039C000CDD078B1B0F5005F16D0022A03D9032A12
:1039D000C5D1EA01C3D501234022626584F83530A0
:1039E000184638BD012A03D032F00202B7D1F0E701
:1039F000B5F1C07FB3D1EEE7032AB0D801A050F8EB
:103A000022F000BFD7390008D3390008D7390008A1
:103A1000F13900083F8010F0ABAAAAAABC700408D4
:103A200070B490F83440856D012C35D090F8354055
:103A30004FF0010C644580F834C005D0002380F8B5
:103A4000343070BC02207047022680F8356004686C
:103A500000264665266826F4802626606360836813
:103A6000402B0EBFA260A160E260C26D08BFE160A2
:103A70003F239340AB602368026C43F0160323603E
:103A80001AB1236843F008032360236843F001035D
:103A90000020236070BC7047022070BC704700BFDC
:103AA0002DE9F04182B0744A866D156800230193B8
:103AB000C36D346808229A402242804604D00168CF
:103AC0000F68780700F18A8001229A40224204D0D0
:103AD000D8F800104969090678D404229A40224295
:103AE00004D0D8F8001009688F0767D410229A40D4
:103AF000224204D0D8F800100F68380749D4202299
:103B00009A40224217D0D8F800100C68E00612D56F
:103B1000B26098F83520052A73D00B6813F4802F13
:103B20000B6800F09080190340F19B80D8F83C307E
:103B30000BB140469847D8F854303BB3D8F85430CE
:103B4000DA071BD5D8F800204C49052388F8353012
:103B50001368A1FB051523F00103AD0A136002E011
:103B60001368DB0704D5019B0133AB420193F7D9FE
:103B70000122002388F8352088F83430D8F84C30FA
:103B800023B1404602B0BDE8F041184702B0BDE89D
:103B9000F081B2600A6812F4802F0A682AD1D70532
:103BA00003D40A6822F008020A60D8F84020002AEC
:103BB000A5D040469047D8F85C30A0E7B260D8F86E
:103BC000542042F00402C8F854208FE7B260D8F8BD
:103BD000542042F00202C8F854207EE70F6827F014
:103BE00004070F60B260D8F8542042F00102C8F810
:103BF000542069E71203D8D5D8F84820002AD8D134
:103C00007DE70A6822F016020A604A6922F0800203
:103C10004A61D8F8402052B30A6822F008020A60CC
:103C20003F2202FA03F3D8F85010B36001220023B8
:103C300088F8352088F834300029A7D0404602B0F3
:103C4000BDE8F041084713F480737FF46FAF0A6852
:103C500022F010020A60012288F8352088F83430FA
:103C600064E7D8F84430002B7FF463AF63E7D8F8FB
:103C70004820002AD0D1D3E700000020B5814E1B98
:103C80002DE9F04F00220C68DFF82CA2834E85B09E
:103C90001346894605E00133102B02F1020200F0C1
:103CA00089800121994001EA040BA143F3D1D9F89D
:103CB00004C00CF003014D1E012D7ED9032940F0F4
:103CC000BE809140CD4307683D4029431CF4403FEE
:103CD0000160E0D000210391DAF8441041F4804102
:103CE000CAF84410DAF8441001F4804103910399B2
:103CF00023F0030101F1804101F59C3103F003073A
:103D0000D1F808E0BF000F25BD402EEA0508644D3C
:103D1000A84224D005F58065A84200F09480614D4A
:103D2000A84200F09780604DA84200F09A805F4D55
:103D3000A84200F09D805E4DA84200F0A0805D4D3D
:103D4000A84200F0A380DFF874E170450CBF4FF08B
:103D5000070E4FF0080E0EFA07F748EA0708C1F8F9
:103D60000880B1686FEA0B071CF4801F0CBF394054
:103D70004BEA0101B160F5681CF4001F0CBF3D4027
:103D80004BEA0505F56075681CF4003F0CBF3D402B
:103D90004BEA0505756031681CF4803F03F10103AF
:103DA0000CBF39404BEA0101102B316002F10202D5
:103DB0007FF477AF05B0BDE8F08FD9F80C50876875
:103DC00005FA02F8032505FA02FE27EA0E0748EA7B
:103DD0000707876047686FEA0E0527EA0B0ECCF3EA
:103DE00000179F4047EA0E074760C76807EA050EBD
:103DF000D9F80870974047EA0E070229C76001FA10
:103E000002F17FF460AF4FEAD30E00EB8E0E03F0A9
:103E10000708DEF820700097D9F810704FEA88087C
:103E200007FA08F701970F2707FA08F8009F27EA13
:103E30000808019F47EA0807CEF8207043E70325EA
:103E40009540ED43D1E74FF0010E0EFA07F748EA2F
:103E5000070884E74FF0020E0EFA07F748EA070852
:103E60007DE74FF0030E0EFA07F748EA070876E7FA
:103E70004FF0040E0EFA07F748EA07086FE74FF015
:103E8000050E0EFA07F748EA070868E74FF0060E36
:103E90000EFA07F748EA070861E700BF003C014057
:103EA0000000024000080240000C024000100240E6
:103EB000001402400018024000380240001C02407A
:103EC0000369194214BF01200020704702B9090498
:103ED0008161704700284DD02DE9F04190F8F9320A
:103EE00004688AB0064603F0FF02002B3CD020464F
:103EF000032386F8F932E36B344613F4807308BF6A
:103F0000336103F0C3FA54F810CB0FCC6D460FC5E4
:103F10000FCC0FC594E8030085E80300371D97E830
:103F20000E00604603F030FA3068012103F0B6FA63
:103F3000B446EE465CF8108BBCE80F00AEE80F000C
:103F4000BCE80F00AEE80F0094E8030085E803002A
:103F5000404697E80E0003F0D9FA0123002086F8C6
:103F6000F9320AB0BDE8F08180F8F822FFF78EFA46
:103F70003068BDE701207047002800F08880F8B560
:103F800090F84130044603F0FF02002B74D0216802
:103F90006369022284F84120C86920F47B6020F024
:103FA0000F009342C8610A6264D0D4E90223002B57
:103FB0000BBF20234023102520250120202A98BF55
:103FC0001D4600F0E3FD2269B2F5007F5BD0B0FB37
:103FD000F5F000EB800061694300B3FBF1F32E497B
:103FE0000533A1FB03131809811EFD29C3F3C00388
:103FF00005D9636C43F0100301206364F8BD2168A8
:1040000040EA03231343D4E901700B62CB69234ECA
:10401000E26847EA000533402B43A56913432B436D
:1040200043F40063CB61236A012B1DD11C4B024377
:104030001C48994218BF4FF0402037F40073C36901
:1040400006EA0306184B63634FF00203C66103627E
:104050000CBF4FF480730023C16913432B430B4300
:104060009BB243F40063C36100200123606484F8C1
:104070004130F8BD2269C5E70C4B80F8402043630E
:10408000FEF7ACFC83E7E3681BB1AD009FE70120BE
:104090007047ED009BE700BFCDCCCCCC40F0FFFFDC
:1040A0000038004000340040C9410008BD4000080D
:1040B000704700BF704700BF704700BF10B503686E
:1040C00084B09A68019290F84120042A044605D0F1
:1040D00094F84130032B31D004B010BD019AD107C0
:1040E0000FD55A6852060CD5C16ADA6821F8022B3E
:1040F000428EC162013A92B24286428E92B2002A48
:104100004AD0019B5906E3D523685A689206DFD549
:104110005A68002122F060025A600291DA68029225
:104120009B6802930123029A84F84130636C43F048
:10413000020320466364FFF7BFFFC9E7019B9B07AB
:104140000FD523685A6810060BD5616A31F8022B27
:10415000DA60628D6162013A92B26285628D92B2DA
:1041600022B3019B1907B7D523685A689206B3D5C5
:104170005A68002122F0A0025A6003919B680393C1
:104180000123039A84F84130636C43F00403204612
:104190006364FFF791FF9FE75A68012122F06002F4
:1041A0005A6080F84110FFF785FFAAE75A6801219D
:1041B00022F0A0025A60204684F84110FFF778FFF1
:1041C000CFE700BF704700BF10B50168934A8B6806
:1041D00086B004460093924B914218BF4FF04023A3
:1041E0009A6801924A6802925A680392426832F4CD
:1041F000007278D0019A92071AD5039A110617D542
:10420000426A911C12884162DA60428D013A92B290
:104210004285428D92B25AB95A6822F0A0025A6081
:10422000438E9BB223B9012380F84130FFF7CAFFC8
:10423000009BDA071CD5029B5B0619D5E36A22684E
:10424000981CD168E0621980638E013B9BB2638643
:10425000638E9BB263B9536823F060035360638D30
:104260009BB22BB9012384F841302046FFF7AAFF07
:10427000009B58061BD5029B990618D522686748F3
:104280005168674B21F06001824218BF4FF0402314
:1042900051605A68012122F0A0025A6084F841104E
:1042A000636C43F0020320466364FFF705FF019B44
:1042B0001A0771D5039B9B066ED522685749584B48
:1042C0008A4218BF4FF040234FF0010C596821F08B
:1042D000A0015960536823F06003536084F841C023
:1042E000636C204650E0009B9A0702D5029B1B0698
:1042F00054D4019BD80702D5039B590669D4019B6E
:104300005A0622D5039B9B061FD523684349444A7E
:104310008B4218BF4FF040220020516821F060010D
:1043200051605A6822F0A0025A600490DA68049240
:104330009B6804930121049B84F84110636C43F053
:10434000020320466364FFF7B7FE009B180723D5DE
:10435000029B990620D5236830485968304A21F0DD
:10436000A001834218BF4FF04022596051680020DD
:1043700021F06001516005909B6805930123059A27
:1043800084F84130636C204643F00403636406B054
:10439000BDE81040FFF790BE06B010BD436A9A1CFE
:1043A0001B884262CB60438D013B9BB24385438DAA
:1043B0009BB2002B9DD14B6823F0A0034B60438E32
:1043C0009BB2002B95D1012380F84130FFF7FAFE14
:1043D0008FE720681149124AE36A884218BF4FF0FC
:1043E0004022981CD168E0621980638E013B9BB229
:1043F0006386638E9BB2002B81D1536823F06003E8
:104400005360638D9BB2002B7FF479AF012384F856
:1044100041302046FFF7D6FE71E700BF003800406C
:1044200000340040002800F0A2812DE9F04103682B
:10443000DD0782B004462FD59E498A6802F00C023F
:10444000042A00F0ED808A6802F00C02082A00F0CD
:10445000E3806368B3F5803F00F0EC80B3F5A02FF4
:1044600000F07581934D2A6822F480322A602A6810
:1044700022F480222A60002B40F0E180FFF766F8EA
:10448000064605E0FFF762F8801B642800F2018110
:104490002B689B03F6D423689F0728D5854A91682B
:1044A00011F00C0F00F09080916801F00C010829C8
:1044B00000F08680E368002B00F00E817E4B7D4E7D
:1044C00001221A60FFF742F8054605E0FFF73EF8C3
:1044D000401B022800F2DD8033689807F6D5336868
:1044E000226923F0F80343EAC203336023681A0702
:1044F00051D458072FD56F4A136C13F080537FD0D7
:1045000000256E4E3368D90540F1B380A368012BB6
:1045100000F0C380052B00F02C81664E326F22F034
:1045200001023267326F22F004023267002B40F042
:10453000B980FFF70BF841F28838074605E0FFF72E
:1045400005F8C01B404500F2A480336F9807F6D4ED
:10455000002D40F00681A069C8B1564DAB6803F04C
:104560000C03082B00F0C980534B002202281A6666
:1045700000F00981FEF7EAFF044605E0FEF7E6FFDA
:10458000001B022800F285802B689B01F6D40020D6
:1045900002B0BDE8F08163690BB3474B454E012281
:1045A000C3F8802EFEF7D2FF054604E0FEF7CEFFEB
:1045B000401B02286DD8736F9B07F7D5236898E7D7
:1045C000526856023FF576AF3A4A1268950744D5CD
:1045D000E268012A41D0012002B0BDE8F081364AEC
:1045E000344EC2F8803EFEF7B1FF054604E0FEF708
:1045F000ADFF401B02284CD8736F9F07F7D4DDE74F
:104600000193136C43F080531364136C03F08053D5
:104610000193019B012574E74A6850027FF519AFA9
:10462000244A126891037FF537AF6268002A7FF44D
:1046300033AFD0E71F4A136843F480331360FEF7AB
:1046400085FF1C4E054604E0FEF780FF401B6428F2
:104650001FD833689A03F7D51DE7164920690A6801
:1046600022F0F80242EAC0020A601A077FF541AF61
:1046700091E7336843F480733360FEF767FF0746C2
:104680003368DA053FF542AFFEF760FFC01B022832
:10469000F6D9032002B0BDE8F081064A136F43F05B
:1046A00001031367FEF752FF024F064641F28838B6
:1046B0000BE000BF0038024000004742007000409D
:1046C000FEF744FF801B4045E3D83B6F9B07F7D5BF
:1046D000002D3FF440AF44E0424A434E1360FEF7E2
:1046E00035FF054604E0FEF731FF401B0228D0D815
:1046F00033689907F7D42368F9E601283FF448AFF7
:104700006B68E26903F4800191427FF464AF226A2E
:1047100003F03F0191427FF45EAF616A47F6C072D9
:104720001A40B2EB811F7FF456AFA26A520803F41D
:104730004031013AB1EB024F7FF44DAFE26A03F032
:104740007063B3EB026F14BF0120002020E7264BFB
:104750001A6842F480221A601A6842F480321A60A1
:104760006DE7214A136C23F080531364F3E60120B4
:1047700070471D4B1A6F42F004021A671A6F42F01D
:1047800001021A678EE7FEF7E1FE064605E0FEF736
:10479000DDFE801B02283FF67CAF2B689901F6D422
:1047A000D4E90731626A0B4343EA8213D4E90A2150
:1047B000520843EA0163013A0A4943EA02430122EB
:1047C0006B600A66FEF7C2FE074D044605E0FEF781
:1047D000BDFE001B02283FF65CAF2B689A01F6D5A0
:1047E000D5E600BF0000474200380240014B0122DD
:1047F000DA64704700004742164908B58B6803F039
:104800000C03042B1BD0082B17D14A684B6849684E
:1048100013F4800302F03F0213D10F48C1F3881153
:10482000A1FB0001FCF72EFB0A4B5B68C3F30143BD
:1048300001335B00B0FBF3F008BD074808BD074833
:1048400008BD0648C1F388110023A1FB0001FCF755
:1048500019FBE9E7003802400024F40000127A0056
:10486000002800F08780484A136803F007038B4252
:104870002DE9F0410D46044609D2CBB213701368FE
:1048800003F007038B4202D00120BDE8F0812368CA
:10489000980714D5590704D53C498A6842F4E05278
:1048A0008A601A0704D539498A6842F460428A60EE
:1048B0003649A0688A6822F0F00202438A60DF0766
:1048C00021D56268012A57D0931E012B2F4B1B68FC
:1048D0004DD99907D8D52D4EB36823F00303134360
:1048E000B360FEF733FE41F28838074604E0FEF776
:1048F0002DFEC01B404544D8B368626803F00C032A
:10490000B3EB820FF3D1204A136803F00703AB42E5
:1049100006D9EBB21370136803F00703AB42B3D1AF
:1049200023685A0706D51949E0688A6822F4E052DC
:1049300002438A601B0707D5144A2169936823F450
:10494000604343EAC1039360FFF756FF0F4A104CE0
:1049500092681049C2F303120346A25C0E48D3408A
:1049600000680B60FEF79EFA0020BDE8F081980118
:10497000B1D489E701207047044B1B689E03AAD479
:1049800082E7032081E700BF003C0240003802407C
:10499000A47004080000002008000020014B1868E3
:1049A000704700BF00000020044B05499B68054A82
:1049B0000868C3F38223D35CD840704700380240B4
:1049C00000000020B4700408044B05499B68054AA8
:1049D0000868C3F34233D35CD840704700380240C4
:1049E00000000020B47004080E4B0F2202609A6889
:1049F00002F0030242609A6802F0F00282609A6854
:104A000002F4E052C2609B68DB0810B403F4E05388
:104A1000054C036123685DF8044B03F007030B604A
:104A2000704700BF00380240003C0240704700BFA2
:104A300010B5054CE3681B0600D410BDFFF7F6FF68
:104A40008023A37310BD00BF00380240F0B5036897
:104A500013F0050F83B0044605D113F002033BD1D8
:104A6000184603B0F0BD464B464E00229A66FEF74C
:104A70006DFD054604E0FEF769FD431B022B28D8B7
:104A800033681F01F7D4D4E901131B0743EA8113EC
:104A90003B4AC6F8843001239366FEF757FD394E32
:104AA000054604E0FEF752FD401B022811D833688A
:104AB0001801F7D52368D0E7FEF748FD41F28837A3
:104AC00006462B6F9B073CD4FEF740FD801BB84287
:104AD000F7D9032003B0F0BD2A4B2B4D00220192E1
:104AE0001A6C42F080521A641B6C03F080530193DD
:104AF000019B2B6843F480732B60FEF727FD06466D
:104B000004E0FEF723FD831B022BE2D82B68D905B6
:104B1000F7D51C4DE3682A6F12F4407212D003F4EB
:104B20004071914210D02B6F154A0121C2F8401EEE
:104B300023F440730021C2F8401E2B672B6FDA0765
:104B4000BAD4E36803F44072B2F5407F0DD00D494A
:104B50008A6822F4F8128A600A4A116FC3F30B03C1
:104B600000200B43136703B0F0BD0648826823F0B2
:104B7000704121F4407122F4F8120A438260EBE79D
:104B8000000047420038024000700040012801D078
:104B9000002070470E4B9A681202F9D45A6812F43A
:104BA000800F5A680A4B14BF0A480B4802F03F02B4
:104BB000B0FBF2F2D3F88400D3F88430C0F388104D
:104BC00002FB00F0C3F30273B0FBF3F0704700BFC9
:104BD0000038024000127A000024F40000286AD055
:104BE00038B5437F044603F0FF02002B4CD0236806
:104BF00053220220CA21607759625A62DA68550648
:104C000029D599686268256921F4E00121F0400105
:104C10009960616998682A430A430243E1689A608F
:104C200019611A69A16842EA01421A61DA6822F040
:104C30008002DA609A6891062AD5196CA06921F47D
:104C4000802119641A6C012102431A6400206177E3
:104C5000FF225A6238BDDA6842F08002DA60FEF75D
:104C600075FC05462368DA685006CAD4FEF76EFC68
:104C7000401BB0F57A7FF5D9236804226277DA68A1
:104C8000FF2201205A6238BD0277FEF73FF8AEE7F7
:104C9000DA6822F0A002DA60FEF758FC054605E06B
:104CA000FEF754FC401BB0F57A7F06D82368DA681B
:104CB0009206F5D5C1E70120704704222368627788
:104CC0000120C5E7037F012B00F023832DE9F04786
:104CD00002230C4601210177054601684377002A2B
:104CE00040F0B882886894F800C010F0400016BF09
:104CF000E078E0708005BCF1090F40F2D780DC4A13
:104D0000ACF10A03DEB2A2FB062E4FEADE0E4F2EF6
:104D10000EF1010E4FF0000240F290806CF307029A
:104D200066F30F22ACF1140363F31742ACF11E03D8
:104D300063F31F6202F07F3682F0F63382F0D837D9
:104D400003F0803306F1583206F1763673404FEAAD
:104D50009E0607F08037012E87EA020700F0DB820B
:104D600007F07F3287F0D83802F1583387F0F637F2
:104D700008F0803807F0803788EA0308022E02F135
:104D8000763383EA070300F0D98208F07F3288F097
:104D9000D83702F1583388F0F63807F0803708F03A
:104DA00080385F40032E02F1763388EA030300F077
:104DB000CC8207F07F3287F0D83802F1583387F081
:104DC000F63708F0803807F0803788EA0308042EA9
:104DD00002F1763383EA070300F0A48208F07F3201
:104DE00088F0D83702F1583388F0F63807F080376A
:104DF00008F080385F40062E02F1763388EA03031C
:104E000040F0B08287F0F63307F07F3703F080334D
:104E100007F17637974E7B400EF03C02C2EB42170B
:104E2000C2EB87070CEB470C96454FEA13634FEA3A
:104E300016665FFA8CFC35D0ACF10A03DBB2092BA5
:104E400002F101062ED9ACF11403DBB2092B02F1F9
:104E5000020627D9ACF11E03DBB2092B02F10306CF
:104E600020D9ACF12803DBB2092B02F1040619D9D1
:104E7000ACF13203DBB2092B02F1050612D9ACF119
:104E80003C03DBB2092B02F106060BD9ACF1460359
:104E9000DBB2092B02F1070604D9ACF1500302F191
:104EA0000806DBB243EA06135FFA83FC6378092B3A
:104EB0004FEA0C4C40F2E3806D4FA3F10A025FFA17
:104EC00082FEA7FB0E67FF08BEF14F0F07F1010737
:104ED00040F24282002663F307066EF30F26A3F129
:104EE000140262F31746A3F11E0262F31F6606F076
:104EF0007F3286F0D83E4FEA970986F0F63602F107
:104F000058380EF0803E06F0803602F17632B9F164
:104F1000010F8EEA080E82EA060200F001820EF00E
:104F20007F388EF0D83A8EF0F63E08F158320AF00B
:104F3000803A0EF0803E08F17638B9F1020F8AEA25
:104F4000020A8EEA080200F0F7810AF07F388AF040
:104F5000D8368AF0F63202F0803206F0803AB9F1A3
:104F6000030F08F1583608F176388AEA060A82EA11
:104F7000080200F0EF810AF07F388AF0D8368AF014
:104F8000F63202F0803206F0803AB9F1040F08F1EF
:104F9000583608F176388AEA060A82EA080200F0F2
:104FA000C3810AF07F368AF0D8388AF0F63206F1EB
:104FB000583E08F0803802F0803206F17636B9F1BA
:104FC000060F88EA0E0882EA060240F0CD8188F0DA
:104FD000F63208F07F3802F0803208F17638254E3C
:104FE00082EA080207F03C0ECEEB4E18CEEB8808A2
:104FF00003EB480377454FEA12624FEA1666DBB2CD
:105000003AD0A3F10A02D2B2092A0EF1010633D92D
:10501000A3F11402D2B2092A0EF102062CD9A3F18F
:105020001E02D2B2092A0EF1030625D9A3F12802E5
:10503000D2B2092A0EF104061ED9A3F13206F2B249
:10504000092A0EF1050617D9A3F13C06F2B2092A86
:105050000EF1060610D9A3F14602D2B2092A0EF1CA
:10506000070609D9503B0EF10806DAB204E000BF8A
:10507000CDCCCCCC1516171842EA0612D3B2A678BE
:10508000092E4FEA032240F2DF80BA4FA6F10A034D
:105090005FFA83F8A7FB08E7FF08B8F14F0F07F1A5
:1050A000010740F25C814FF0000E66F3070E68F3D3
:1050B0000F2EA6F1140363F3174EA6F11E0363F33C
:1050C0001F6E0EF07F338EF0D83803F1583908F098
:1050D00080388EF0F63E88EA09084FEA97090EF00C
:1050E000803E03F17633B9F1010F8EEA030E00F032
:1050F000148108F07F3E88F0D83A88F0F63303F048
:1051000080330AF08038B9F1020F0EF1583A0EF1EF
:10511000763E88EA0A0A83EA0E0E00F00A810AF057
:105120007F388AF0D83E8AF0F63303F080330EF0F1
:10513000803AB9F1030F08F1583E08F176388AEA4F
:105140000E0A83EA080E00F002810AF07F3E8AF020
:10515000D8388AF0F63308F080380EF1583A03F068
:1051600080330EF1763EB9F1040F88EA0A0883EA2B
:105170000E0E00F0DB8008F07F3E88F0D83A88F011
:10518000F63303F080380AF0803A0EF15833B9F163
:10519000060F0EF1763E8AEA030388EA0E0E40F00F
:1051A000E58083F0F63E03F07F330EF0803E03F19E
:1051B0007633DFF8D8818EEA030E07F03C094FEA18
:1051C0001E634FEA186EC9EB4918C9EB880806EB55
:1051D0004806B945F6B234D0A6F10A03DBB2092B72
:1051E00009F1010E2DD9A6F11403DBB2092B09F147
:1051F000020E26D9A6F11E03DBB2092B09F1030E1C
:105200001FD9A6F12803DBB2092B09F1040E18D926
:10521000A6F13203DBB2092B09F1050E11D9A6F173
:105220003C03DBB2092B09F1060E0AD9A6F14603AD
:10523000DBB2092B09F1070E03D9503E09F1080E24
:10524000F3B243EA0E16F6B24CEA000C4CEA020244
:1052500016430EE08B68227813F0400316BFE67801
:10526000E370B3056678360246EA0246A278164332
:105270001E43CA234B6253234B62CB685F061ED585
:1052800006F07F3626F0FE460E608A68E36822F458
:1052900080228A60226913438A6813438B60CB683B
:1052A00023F08003CB608B689A061FD501236B77B0
:1052B0000020FF2200234A622B77BDE8F087CB68ED
:1052C00043F08003CB60FEF741F907462968CB68BD
:1052D0005806D5D4FEF73AF9C01BB0F57A7FF5D958
:1052E000042329686B77CB680120E2E7CB6823F0C1
:1052F000A003CB60FEF72AF9044605E0FEF726F985
:10530000001BB0F57A7F1BD82968CB689B06F5D5C2
:10531000CCE702207047184E7EE5DFF85C804CE752
:10532000154E5FE6154E77E5144E5BE6DFF84C80D0
:1053300043E7DFF84C8040E7114E53E6104E6BE533
:10534000042329686B770120B3E70E4E64E5DFF88C
:10535000348032E70B4E45E64FF0000E53E64FF037
:1053600000093BE7084E57E5074E3BE6DFF818809B
:1053700023E700BFCDCCCCCC010203040D0E0F10EF
:1053800005060708090A0B0C111213141516171835
:10539000036810B59C6A18691B68C0F30E00C1E968
:1053A0000140C3F3054EC3F3062C03F07F00C3F3A3
:1053B0000644C3F3805381F800E081F801C0CB704C
:1053C0008870DAB94FEA1C1303EB83030CF00F0C5F
:1053D0000CEB430C4FEA1E1E03090EEB8E0E04F07D
:1053E0000F0403EB830300F00F0004EB4E0E00EB01
:1053F000430081F800E081F801C08870002010BDF2
:10540000037F012B00F00C832DE9F04104460223B9
:105410000120207763775AB391F801E0CA788B783E
:105420000D784FEA0E2E4EEA024E4EEA030E4EEA79
:10543000453522685323CA2151625362D3685E0600
:1054400040F1BC8225F07F4525F0C0055560D3684A
:1054500023F08003D3609368990640F1CE82012344
:1054600063770020FF21002351622377BDE8F0819C
:105470004878C70640F1BA8291F803C020F01000C6
:105480000A30C0B2BCF1090F487040F2D782D74D44
:10549000ACF10A03DEB2A5FB0625ED084F2E05F19F
:1054A00001054FF0000240F28F806CF3070266F3B3
:1054B0000F22ACF1140363F31742ACF11E0363F344
:1054C0001F6202F07F3682F0F63382F0D83703F0A5
:1054D000803306F1583206F176367340AE0807F095
:1054E0008037012E87EA020700F0A08207F07F32A2
:1054F00087F0D83E02F1583387F0F6370EF0803E41
:1055000007F080378EEA030E022E02F1763383EA2B
:10551000070300F098820EF07F328EF0D83702F148
:1055200058338EF0F63E07F080370EF0803E5F4035
:10553000032E02F176338EEA030300F0918207F026
:105540007F3287F0D83E02F1583387F0F6370EF0FD
:10555000803E07F080378EEA030E042E02F1763388
:1055600083EA070300F068820EF07F328EF0D837AE
:1055700002F158338EF0F63E07F080370EF0803E91
:105580005F40062E02F176338EEA030340F06C8210
:1055900087F0F63307F07F3703F0803307F1763773
:1055A000934E7B4005F03C02C2EB4217C2EB8707EB
:1055B0000CEB470C95424FEA13634FEA16665FFA0D
:1055C0008CFC36D0ACF10A03DBB2092B02F10106E8
:1055D0002FD9ACF11403DBB2092B02F1020628D952
:1055E000ACF11E03DBB2092B02F1030621D9ACF1A9
:1055F0002803DBB2092B02F104061AD9ACF13203FD
:10560000DBB2092B02F1050613D9ACF13C03DBB286
:10561000092B02F106060CD9ACF14603DBB2092BCB
:1056200002F1070605D9ACF1500C02F108065FFA49
:105630008CF343EA06135FFA83FC09284FEA0C4C0B
:1056400040F2D880694DA0F10A03DEB2A5FB062521
:10565000ED084F2E05F101054FF0000240F28E805B
:1056600060F3070266F30F22A0F1140363F31742FD
:10567000A0F11E0363F31F6202F07F3682F0F6335F
:1056800082F0D83703F0803306F1583206F17636CF
:105690007340AE0807F08037012E87EA020700F05A
:1056A000C38107F07F3287F0D83E02F1583387F08C
:1056B000F6370EF0803E07F080378EEA030E022E9A
:1056C00002F1763383EA070300F0BF810EF07F32E8
:1056D0008EF0D83702F158338EF0F63E07F080375F
:1056E0000EF0803E5F40032E02F176338EEA030314
:1056F00000F0B28107F07F3287F0D83E02F15833D4
:1057000087F0F6370EF0803E07F080378EEA030E02
:10571000042E02F1763383EA070300F089810EF04C
:105720007F328EF0D83702F158338EF0F63E07F014
:1057300080370EF0803E5F40062E02F176338EEA0F
:10574000030340F0938187F0F63307F07F3703F0CF
:10575000803307F17637264E7B4005F03C02C2EBE2
:105760004217C2EB870700EB4700AA424FEA1363D8
:105770004FEA1666C0B234D0A0F10A03DBB2092B9F
:1057800002F101062DD9A0F11403DBB2092B02F1BD
:10579000020626D9A0F11E03DBB2092B02F1030693
:1057A0001FD9A0F12803DBB2092B02F1040618D996
:1057B000A0F13203DBB2092B02F1050611D9A0F1E9
:1057C0003C03DBB2092B02F106060AD9A0F146031D
:1057D000DBB2092B02F1070603D9503802F10806A3
:1057E000C3B243EA0613D8B204E000BFCDCCCCCCA0
:1057F0001516171891F802E0BEF1090F4FEA0020C4
:1058000040F2D5809A4DAEF10A03DEB2A5FB062523
:10581000ED084F2E05F101054FF0000240F28F8098
:105820006EF3070266F30F22AEF1140363F317421F
:10583000AEF11E0363F31F6202F07F3682F0F6338F
:1058400082F0D83703F0803306F1583206F176360D
:105850007340AE0807F08037012E87EA020700F098
:10586000E18007F07F3287F0D83802F1583387F0B3
:10587000F63708F0803807F0803788EA0308022EF0
:1058800002F1763383EA070300F0DB8008F07F3211
:1058900088F0D83702F1583388F0F63807F08037AF
:1058A00008F080385F40032E02F1763388EA030364
:1058B00000F0D48007F07F3287F0D83802F15833F7
:1058C00087F0F63708F0803807F0803788EA030859
:1058D000042E02F1763383EA070300F0AB8008F070
:1058E0007F3288F0D83702F1583388F0F63807F065
:1058F000803708F080385F40062E02F1763388EA60
:10590000030340F0AF8087F0F63307F07F3703F0F2
:10591000803307F17637574E7B4005F03C02C2EBEF
:105920004217C2EB87070EEB470EAA424FEA1363FA
:105930004FEA16665FFA8EFE35D0AEF10A03DBB28F
:10594000092B02F101062ED9AEF11403DBB2092BAB
:1059500002F1020627D9AEF11E03DBB2092B02F1D8
:10596000030620D9AEF12803DBB2092B02F10406AD
:1059700019D9AEF13203DBB2092B02F1050612D9B7
:10598000AEF13C03DBB2092B02F106060BD9AEF1F6
:105990004603DBB2092B02F1070604D9AEF150032E
:1059A00002F10806DBB243EA06135FFA83FE0D78C4
:1059B0004CEA4535284340EA0E053AE5D36843F002
:1059C0008003D360FDF7C2FD06462268D3685806FF
:1059D0003FF538ADFDF7BAFD801BB0F57A7FF4D9FD
:1059E000042322686377D36801203BE591F803C064
:1059F000BCF1090F3FF64BAD1FE6D36823F0A003BF
:105A0000D360FDF7A3FD054605E0FDF79FFD401BB4
:105A1000B0F57A7F1BD82268D3689B06F5D51EE5C2
:105A200002207047144E78E7134E96E6124EB9E501
:105A3000124E92E6114E70E7104EB3E54FEA0C4C51
:105A400000E60F4E69E70E4EACE50D4E85E60423E9
:105A500022686377012005E50A4E7EE6094E5CE781
:105A6000084E9FE5084E58E7074E9BE5064E74E644
:105A7000CDCCCCCC15161718010203040D0E0F1057
:105A800005060708090A0B0C1112131403685B685A
:105A900010B5C3F30740C3F3042E03F03F0CC3F368
:105AA0000724C3F34233C87081F801E00B7081F81A
:105AB00002C0DAB94FEA1C1303EB83030CF00F0C9E
:105AC0000CEB430C4FEA1E1E03090EEB8E0E04F086
:105AD0000F0403EB830300F00F0004EB4E0E00EB0A
:105AE000430081F801E081F802C0C870002010BDB9
:105AF0002DE9F04FD64CD74B2668A3FB0636F60AA5
:105B00004FF47A7303FB06F6037F85B0012B0396EF
